:0D006E00E4A2B233FFBF01037F00227F0137
:01007B002262
:07008800C288D2A8D2AF220A
:03000300020006F2
:10000600C0E0C0F0C083C082C0D075D000C000C0C0
:0D00160001C002C003C004C005C006C00741
:10002300E4FF12006EC2A8BF0104D2B38002C2B3C0
:090033007FE87E03120057D2A8F9
:10003C00D007D006D005D004D003D002D001D00018
:0B004C00D0D0D082D083D0F0D0E032C2
:05008F00C2B30200886D
:100057007D157C03ED1D70011C144C70F7EF1F70AC
:06006700011E144E70EAB8
:01006D002270
:0300000002007C7F
:0C007C00787FE4F6D8FD75810702008F44
:00000001FF
