:0400DD00020801F420
:03000B0002009A56
:10009A00C0E0C0D075D000C000C2AF758ABE758CF2
:1000AA00D47809E616187001167809E6184670071A
:1000BA0076010876F4B2B3D2AFD000D0D0D0E03215
:1000CA00438E80E4F589758ABE758CD4D28CD2A908
:0300DA00D2AF2280
:07000300D2B31200CA80FE17
:0300000002000EED
:0C000E00787FE4F6D8FD758109020055EA
:10001A00020003E493A3F8E493A34003F68001F2F9
:10002A0008DFF48029E493A3F85407240CC8C333E7
:10003A00C4540F4420C8834004F456800146F6DFB6
:10004A00E4800B01020408102040809000DDE47E69
:10005A00019360BCA3FF543F30E509541FFEE493AB
:10006A00A360010ECF54C025E060A840B8E493A372
:10007A00FAE493A3F8E493A3C8C582C8CAC583CA9D
:10008A00F0A3C8C582C8CAC583CADFE9DEE780BE55
:0100E100001E
:00000001FF
